{
  "_format": "hh-sol-artifact-1",
  "contractName": "Doodles",
  "sourceName": "contracts/Doodles.sol",
  "abi": [
    {
      "inputs": [],
      "stateMutability": "nonpayable",
      "type": "constructor"
    },
    {
      "inputs": [],
      "name": "ERC721EnumerableForbiddenBatchMint",
      "type": "error"
    },
    {
      "inputs": [
        {
          "internalType": "address",
          "name": "sender",
          "type": "address"
        },
        {
          "internalType": "uint256",
          "name": "tokenId",
          "type": "uint256"
        },
        {
          "internalType": "address",
          "name": "owner",
          "type": "address"
        }
      ],
      "name": "ERC721IncorrectOwner",
      "type": "error"
    },
    {
      "inputs": [
        {
          "internalType": "address",
          "name": "operator",
          "type": "address"
        },
        {
          "internalType": "uint256",
          "name": "tokenId",
          "type": "uint256"
        }
      ],
      "name": "ERC721InsufficientApproval",
      "type": "error"
    },
    {
      "inputs": [
        {
          "internalType": "address",
          "name": "approver",
          "type": "address"
        }
      ],
      "name": "ERC721InvalidApprover",
      "type": "error"
    },
    {
      "inputs": [
        {
          "internalType": "address",
          "name": "operator",
          "type": "address"
        }
      ],
      "name": "ERC721InvalidOperator",
      "type": "error"
    },
    {
      "inputs": [
        {
          "internalType": "address",
          "name": "owner",
          "type": "address"
        }
      ],
      "name": "ERC721InvalidOwner",
      "type": "error"
    },
    {
      "inputs": [
        {
          "internalType": "address",
          "name": "receiver",
          "type": "address"
        }
      ],
      "name": "ERC721InvalidReceiver",
      "type": "error"
    },
    {
      "inputs": [
        {
          "internalType": "address",
          "name": "sender",
          "type": "address"
        }
      ],
      "name": "ERC721InvalidSender",
      "type": "error"
    },
    {
      "inputs": [
        {
          "internalType": "uint256",
          "name": "tokenId",
          "type": "uint256"
        }
      ],
      "name": "ERC721NonexistentToken",
      "type": "error"
    },
    {
      "inputs": [
        {
          "internalType": "address",
          "name": "owner",
          "type": "address"
        },
        {
          "internalType": "uint256",
          "name": "index",
          "type": "uint256"
        }
      ],
      "name": "ERC721OutOfBoundsIndex",
      "type": "error"
    },
    {
      "inputs": [
        {
          "internalType": "address",
          "name": "owner",
          "type": "address"
        }
      ],
      "name": "OwnableInvalidOwner",
      "type": "error"
    },
    {
      "inputs": [
        {
          "internalType": "address",
          "name": "account",
          "type": "address"
        }
      ],
      "name": "OwnableUnauthorizedAccount",
      "type": "error"
    },
    {
      "anonymous": false,
      "inputs": [
        {
          "indexed": true,
          "internalType": "address",
          "name": "owner",
          "type": "address"
        },
        {
          "indexed": true,
          "internalType": "address",
          "name": "approved",
          "type": "address"
        },
        {
          "indexed": true,
          "internalType": "uint256",
          "name": "tokenId",
          "type": "uint256"
        }
      ],
      "name": "Approval",
      "type": "event"
    },
    {
      "anonymous": false,
      "inputs": [
        {
          "indexed": true,
          "internalType": "address",
          "name": "owner",
          "type": "address"
        },
        {
          "indexed": true,
          "internalType": "address",
          "name": "operator",
          "type": "address"
        },
        {
          "indexed": false,
          "internalType": "bool",
          "name": "approved",
          "type": "bool"
        }
      ],
      "name": "ApprovalForAll",
      "type": "event"
    },
    {
      "anonymous": false,
      "inputs": [
        {
          "indexed": true,
          "internalType": "address",
          "name": "previousOwner",
          "type": "address"
        },
        {
          "indexed": true,
          "internalType": "address",
          "name": "newOwner",
          "type": "address"
        }
      ],
      "name": "OwnershipTransferred",
      "type": "event"
    },
    {
      "anonymous": false,
      "inputs": [
        {
          "indexed": true,
          "internalType": "address",
          "name": "from",
          "type": "address"
        },
        {
          "indexed": true,
          "internalType": "address",
          "name": "to",
          "type": "address"
        },
        {
          "indexed": true,
          "internalType": "uint256",
          "name": "tokenId",
          "type": "uint256"
        }
      ],
      "name": "Transfer",
      "type": "event"
    },
    {
      "inputs": [],
      "name": "MAX_PUBLIC_MINT",
      "outputs": [
        {
          "internalType": "uint256",
          "name": "",
          "type": "uint256"
        }
      ],
      "stateMutability": "view",
      "type": "function"
    },
    {
      "inputs": [],
      "name": "MAX_SUPPLY",
      "outputs": [
        {
          "internalType": "uint256",
          "name": "",
          "type": "uint256"
        }
      ],
      "stateMutability": "view",
      "type": "function"
    },
    {
      "inputs": [],
      "name": "PRICE_PER_TOKEN",
      "outputs": [
        {
          "internalType": "uint256",
          "name": "",
          "type": "uint256"
        }
      ],
      "stateMutability": "view",
      "type": "function"
    },
    {
      "inputs": [],
      "name": "PROVENANCE",
      "outputs": [
        {
          "internalType": "string",
          "name": "",
          "type": "string"
        }
      ],
      "stateMutability": "view",
      "type": "function"
    },
    {
      "inputs": [
        {
          "internalType": "address",
          "name": "to",
          "type": "address"
        },
        {
          "internalType": "uint256",
          "name": "tokenId",
          "type": "uint256"
        }
      ],
      "name": "approve",
      "outputs": [],
      "stateMutability": "nonpayable",
      "type": "function"
    },
    {
      "inputs": [
        {
          "internalType": "address",
          "name": "owner",
          "type": "address"
        }
      ],
      "name": "balanceOf",
      "outputs": [
        {
          "internalType": "uint256",
          "name": "",
          "type": "uint256"
        }
      ],
      "stateMutability": "view",
      "type": "function"
    },
    {
      "inputs": [
        {
          "internalType": "uint256",
          "name": "tokenId",
          "type": "uint256"
        }
      ],
      "name": "getApproved",
      "outputs": [
        {
          "internalType": "address",
          "name": "",
          "type": "address"
        }
      ],
      "stateMutability": "view",
      "type": "function"
    },
    {
      "inputs": [],
      "name": "isAllowListActive",
      "outputs": [
        {
          "internalType": "bool",
          "name": "",
          "type": "bool"
        }
      ],
      "stateMutability": "view",
      "type": "function"
    },
    {
      "inputs": [
        {
          "internalType": "address",
          "name": "owner",
          "type": "address"
        },
        {
          "internalType": "address",
          "name": "operator",
          "type": "address"
        }
      ],
      "name": "isApprovedForAll",
      "outputs": [
        {
          "internalType": "bool",
          "name": "",
          "type": "bool"
        }
      ],
      "stateMutability": "view",
      "type": "function"
    },
    {
      "inputs": [
        {
          "internalType": "uint256",
          "name": "numberOfTokens",
          "type": "uint256"
        }
      ],
      "name": "mint",
      "outputs": [],
      "stateMutability": "payable",
      "type": "function"
    },
    {
      "inputs": [
        {
          "internalType": "uint8",
          "name": "numberOfTokens",
          "type": "uint8"
        }
      ],
      "name": "mintAllowList",
      "outputs": [],
      "stateMutability": "payable",
      "type": "function"
    },
    {
      "inputs": [],
      "name": "name",
      "outputs": [
        {
          "internalType": "string",
          "name": "",
          "type": "string"
        }
      ],
      "stateMutability": "view",
      "type": "function"
    },
    {
      "inputs": [
        {
          "internalType": "address",
          "name": "addr",
          "type": "address"
        }
      ],
      "name": "numAvailableToMint",
      "outputs": [
        {
          "internalType": "uint8",
          "name": "",
          "type": "uint8"
        }
      ],
      "stateMutability": "view",
      "type": "function"
    },
    {
      "inputs": [],
      "name": "owner",
      "outputs": [
        {
          "internalType": "address",
          "name": "",
          "type": "address"
        }
      ],
      "stateMutability": "view",
      "type": "function"
    },
    {
      "inputs": [
        {
          "internalType": "uint256",
          "name": "tokenId",
          "type": "uint256"
        }
      ],
      "name": "ownerOf",
      "outputs": [
        {
          "internalType": "address",
          "name": "",
          "type": "address"
        }
      ],
      "stateMutability": "view",
      "type": "function"
    },
    {
      "inputs": [],
      "name": "renounceOwnership",
      "outputs": [],
      "stateMutability": "nonpayable",
      "type": "function"
    },
    {
      "inputs": [
        {
          "internalType": "uint256",
          "name": "n",
          "type": "uint256"
        }
      ],
      "name": "reserve",
      "outputs": [],
      "stateMutability": "nonpayable",
      "type": "function"
    },
    {
      "inputs": [
        {
          "internalType": "address",
          "name": "from",
          "type": "address"
        },
        {
          "internalType": "address",
          "name": "to",
          "type": "address"
        },
        {
          "internalType": "uint256",
          "name": "tokenId",
          "type": "uint256"
        }
      ],
      "name": "safeTransferFrom",
      "outputs": [],
      "stateMutability": "nonpayable",
      "type": "function"
    },
    {
      "inputs": [
        {
          "internalType": "address",
          "name": "from",
          "type": "address"
        },
        {
          "internalType": "address",
          "name": "to",
          "type": "address"
        },
        {
          "internalType": "uint256",
          "name": "tokenId",
          "type": "uint256"
        },
        {
          "internalType": "bytes",
          "name": "data",
          "type": "bytes"
        }
      ],
      "name": "safeTransferFrom",
      "outputs": [],
      "stateMutability": "nonpayable",
      "type": "function"
    },
    {
      "inputs": [],
      "name": "saleIsActive",
      "outputs": [
        {
          "internalType": "bool",
          "name": "",
          "type": "bool"
        }
      ],
      "stateMutability": "view",
      "type": "function"
    },
    {
      "inputs": [
        {
          "internalType": "address[]",
          "name": "addresses",
          "type": "address[]"
        },
        {
          "internalType": "uint8",
          "name": "numAllowedToMint",
          "type": "uint8"
        }
      ],
      "name": "setAllowList",
      "outputs": [],
      "stateMutability": "nonpayable",
      "type": "function"
    },
    {
      "inputs": [
        {
          "internalType": "address",
          "name": "operator",
          "type": "address"
        },
        {
          "internalType": "bool",
          "name": "approved",
          "type": "bool"
        }
      ],
      "name": "setApprovalForAll",
      "outputs": [],
      "stateMutability": "nonpayable",
      "type": "function"
    },
    {
      "inputs": [
        {
          "internalType": "string",
          "name": "baseURI_",
          "type": "string"
        }
      ],
      "name": "setBaseURI",
      "outputs": [],
      "stateMutability": "nonpayable",
      "type": "function"
    },
    {
      "inputs": [
        {
          "internalType": "bool",
          "name": "_isAllowListActive",
          "type": "bool"
        }
      ],
      "name": "setIsAllowListActive",
      "outputs": [],
      "stateMutability": "nonpayable",
      "type": "function"
    },
    {
      "inputs": [
        {
          "internalType": "string",
          "name": "provenance",
          "type": "string"
        }
      ],
      "name": "setProvenance",
      "outputs": [],
      "stateMutability": "nonpayable",
      "type": "function"
    },
    {
      "inputs": [
        {
          "internalType": "bool",
          "name": "newState",
          "type": "bool"
        }
      ],
      "name": "setSaleState",
      "outputs": [],
      "stateMutability": "nonpayable",
      "type": "function"
    },
    {
      "inputs": [
        {
          "internalType": "bytes4",
          "name": "interfaceId",
          "type": "bytes4"
        }
      ],
      "name": "supportsInterface",
      "outputs": [
        {
          "internalType": "bool",
          "name": "",
          "type": "bool"
        }
      ],
      "stateMutability": "view",
      "type": "function"
    },
    {
      "inputs": [],
      "name": "symbol",
      "outputs": [
        {
          "internalType": "string",
          "name": "",
          "type": "string"
        }
      ],
      "stateMutability": "view",
      "type": "function"
    },
    {
      "inputs": [
        {
          "internalType": "uint256",
          "name": "index",
          "type": "uint256"
        }
      ],
      "name": "tokenByIndex",
      "outputs": [
        {
          "internalType": "uint256",
          "name": "",
          "type": "uint256"
        }
      ],
      "stateMutability": "view",
      "type": "function"
    },
    {
      "inputs": [
        {
          "internalType": "address",
          "name": "owner",
          "type": "address"
        },
        {
          "internalType": "uint256",
          "name": "index",
          "type": "uint256"
        }
      ],
      "name": "tokenOfOwnerByIndex",
      "outputs": [
        {
          "internalType": "uint256",
          "name": "",
          "type": "uint256"
        }
      ],
      "stateMutability": "view",
      "type": "function"
    },
    {
      "inputs": [
        {
          "internalType": "uint256",
          "name": "tokenId",
          "type": "uint256"
        }
      ],
      "name": "tokenURI",
      "outputs": [
        {
          "internalType": "string",
          "name": "",
          "type": "string"
        }
      ],
      "stateMutability": "view",
      "type": "function"
    },
    {
      "inputs": [],
      "name": "totalSupply",
      "outputs": [
        {
          "internalType": "uint256",
          "name": "",
          "type": "uint256"
        }
      ],
      "stateMutability": "view",
      "type": "function"
    },
    {
      "inputs": [
        {
          "internalType": "address",
          "name": "from",
          "type": "address"
        },
        {
          "internalType": "address",
          "name": "to",
          "type": "address"
        },
        {
          "internalType": "uint256",
          "name": "tokenId",
          "type": "uint256"
        }
      ],
      "name": "transferFrom",
      "outputs": [],
      "stateMutability": "nonpayable",
      "type": "function"
    },
    {
      "inputs": [
        {
          "internalType": "address",
          "name": "newOwner",
          "type": "address"
        }
      ],
      "name": "transferOwnership",
      "outputs": [],
      "stateMutability": "nonpayable",
      "type": "function"
    },
    {
      "inputs": [],
      "name": "withdraw",
      "outputs": [],
      "stateMutability": "nonpayable",
      "type": "function"
    }
  ],
  "bytecode": "0x60806040526000600c60006101000a81548160ff0219169083151502179055506000600e60006101000a81548160ff0219169083151502179055503480156200004757600080fd5b50336040518060400160405280600781526020017f446f6f646c6573000000000000000000000000000000000000000000000000008152506040518060400160405280600681526020017f444f4f444c4500000000000000000000000000000000000000000000000000008152508160009081620000c69190620004a8565b508060019081620000d89190620004a8565b505050600073ffffffffffffffffffffffffffffffffffffffff168173ffffffffffffffffffffffffffffffffffffffff1603620001505760006040517f1e4fbdf7000000000000000000000000000000000000000000000000000000008152600401620001479190620005d4565b60405180910390fd5b62000161816200016860201b60201c565b50620005f1565b6000600a60009054906101000a900473ffffffffffffffffffffffffffffffffffffffff16905081600a60006101000a81548173ffffffffffffffffffffffffffffffffffffffff021916908373ffffffffffffffffffffffffffffffffffffffff1602179055508173ffffffffffffffffffffffffffffffffffffffff168173ffffffffffffffffffffffffffffffffffffffff167f8be0079c531659141344cd1fd0a4f28419497f9722a3daafe3b4186f6b6457e060405160405180910390a35050565b600081519050919050565b7f4e487b7100000000000000000000000000000000000000000000000000000000600052604160045260246000fd5b7f4e487b7100000000000000000000000000000000000000000000000000000000600052602260045260246000fd5b60006002820490506001821680620002b057607f821691505b602082108103620002c657620002c562000268565b5b50919050565b60008190508160005260206000209050919050565b60006020601f8301049050919050565b600082821b905092915050565b600060088302620003307fffffffffffffffffffffffffffffffffffffffffffffffffffffffffffffffff82620002f1565b6200033c8683620002f1565b95508019841693508086168417925050509392505050565b6000819050919050565b6000819050919050565b600062000389620003836200037d8462000354565b6200035e565b62000354565b9050919050565b6000819050919050565b620003a58362000368565b620003bd620003b48262000390565b848454620002fe565b825550505050565b600090565b620003d4620003c5565b620003e18184846200039a565b505050565b5b818110156200040957620003fd600082620003ca565b600181019050620003e7565b5050565b601f82111562000458576200042281620002cc565b6200042d84620002e1565b810160208510156200043d578190505b620004556200044c85620002e1565b830182620003e6565b50505b505050565b600082821c905092915050565b60006200047d600019846008026200045d565b1980831691505092915050565b60006200049883836200046a565b9150826002028217905092915050565b620004b3826200022e565b67ffffffffffffffff811115620004cf57620004ce62000239565b5b620004db825462000297565b620004e88282856200040d565b600060209050601f8311600181146200052057600084156200050b578287015190505b6200051785826200048a565b86555062000587565b601f1984166200053086620002cc565b60005b828110156200055a5784890151825560018201915060208501945060208101905062000533565b868310156200057a578489015162000576601f8916826200046a565b8355505b6001600288020188555050505b505050505050565b600073ffffffffffffffffffffffffffffffffffffffff82169050919050565b6000620005bc826200058f565b9050919050565b620005ce81620005af565b82525050565b6000602082019050620005eb6000830184620005c3565b92915050565b613bae80620006016000396000f3fe6080604052600436106102045760003560e01c8063715018a611610118578063b88d4fde116100a0578063ddff5b1c1161006f578063ddff5b1c14610758578063e985e9c514610774578063eb8d2444146107b1578063f2fde38b146107dc578063ffe630b51461080557610204565b8063b88d4fde1461068c578063c04a2836146106b5578063c4e37095146106f2578063c87b56dd1461071b57610204565b8063833b9499116100e7578063833b9499146105c65780638da5cb5b146105f157806395d89b411461061c578063a0712d6814610647578063a22cb4651461066357610204565b8063715018a614610534578063718bc4af1461054b578063819b25ba146105745780638295784d1461059d57610204565b806332cb6b0c1161019b57806355f804b31161016a57806355f804b31461043b5780636352211e146104645780636373a6b1146104a157806365f13097146104cc57806370a08231146104f757610204565b806332cb6b0c146103935780633ccfd60b146103be57806342842e0e146103d55780634f6ccce7146103fe57610204565b806318160ddd116101d757806318160ddd146102d757806323b872dd1461030257806329fc6bae1461032b5780632f745c591461035657610204565b806301ffc9a71461020957806306fdde0314610246578063081812fc14610271578063095ea7b3146102ae575b600080fd5b34801561021557600080fd5b50610230600480360381019061022b9190612a8b565b61082e565b60405161023d9190612ad3565b60405180910390f35b34801561025257600080fd5b5061025b610840565b6040516102689190612b7e565b60405180910390f35b34801561027d57600080fd5b5061029860048036038101906102939190612bd6565b6108d2565b6040516102a59190612c44565b60405180910390f35b3480156102ba57600080fd5b506102d560048036038101906102d09190612c8b565b6108ee565b005b3480156102e357600080fd5b506102ec610904565b6040516102f99190612cda565b60405180910390f35b34801561030e57600080fd5b5061032960048036038101906103249190612cf5565b610911565b005b34801561033757600080fd5b50610340610a13565b60405161034d9190612ad3565b60405180910390f35b34801561036257600080fd5b5061037d60048036038101906103789190612c8b565b610a26565b60405161038a9190612cda565b60405180910390f35b34801561039f57600080fd5b506103a8610acf565b6040516103b59190612cda565b60405180910390f35b3480156103ca57600080fd5b506103d3610ad5565b005b3480156103e157600080fd5b506103fc60048036038101906103f79190612cf5565b610b2c565b005b34801561040a57600080fd5b5061042560048036038101906104209190612bd6565b610b4c565b6040516104329190612cda565b60405180910390f35b34801561044757600080fd5b50610462600480360381019061045d9190612e7d565b610bc2565b005b34801561047057600080fd5b5061048b60048036038101906104869190612bd6565b610bdd565b6040516104989190612c44565b60405180910390f35b3480156104ad57600080fd5b506104b6610bef565b6040516104c39190612b7e565b60405180910390f35b3480156104d857600080fd5b506104e1610c7d565b6040516104ee9190612cda565b60405180910390f35b34801561050357600080fd5b5061051e60048036038101906105199190612ec6565b610c82565b60405161052b9190612cda565b60405180910390f35b34801561054057600080fd5b50610549610d3c565b005b34801561055757600080fd5b50610572600480360381019061056d9190612f1f565b610d50565b005b34801561058057600080fd5b5061059b60048036038101906105969190612bd6565b610d75565b005b3480156105a957600080fd5b506105c460048036038101906105bf9190612fe5565b610dc1565b005b3480156105d257600080fd5b506105db610e6f565b6040516105e89190612cda565b60405180910390f35b3480156105fd57600080fd5b50610606610e7b565b6040516106139190612c44565b60405180910390f35b34801561062857600080fd5b50610631610ea5565b60405161063e9190612b7e565b60405180910390f35b610661600480360381019061065c9190612bd6565b610f37565b005b34801561066f57600080fd5b5061068a60048036038101906106859190613045565b6110b4565b005b34801561069857600080fd5b506106b360048036038101906106ae9190613126565b6110ca565b005b3480156106c157600080fd5b506106dc60048036038101906106d79190612ec6565b6110e7565b6040516106e991906131b8565b60405180910390f35b3480156106fe57600080fd5b5061071960048036038101906107149190612f1f565b61113d565b005b34801561072757600080fd5b50610742600480360381019061073d9190612bd6565b611162565b60405161074f9190612b7e565b60405180910390f35b610772600480360381019061076d91906131d3565b6111cb565b005b34801561078057600080fd5b5061079b60048036038101906107969190613200565b611415565b6040516107a89190612ad3565b60405180910390f35b3480156107bd57600080fd5b506107c66114a9565b6040516107d39190612ad3565b60405180910390f35b3480156107e857600080fd5b5061080360048036038101906107fe9190612ec6565b6114bc565b005b34801561081157600080fd5b5061082c60048036038101906108279190612e7d565b611542565b005b60006108398261155d565b9050919050565b60606000805461084f9061326f565b80601f016020809104026020016040519081016040528092919081815260200182805461087b9061326f565b80156108c85780601f1061089d576101008083540402835291602001916108c8565b820191906000526020600020905b8154815290600101906020018083116108ab57829003601f168201915b5050505050905090565b60006108dd826115d7565b506108e78261165f565b9050919050565b61090082826108fb61169c565b6116a4565b5050565b6000600880549050905090565b600073ffffffffffffffffffffffffffffffffffffffff168273ffffffffffffffffffffffffffffffffffffffff16036109835760006040517f64a0ae9200000000000000000000000000000000000000000000000000000000815260040161097a9190612c44565b60405180910390fd5b6000610997838361099261169c565b6116b6565b90508373ffffffffffffffffffffffffffffffffffffffff168173ffffffffffffffffffffffffffffffffffffffff1614610a0d578382826040517f64283d7b000000000000000000000000000000000000000000000000000000008152600401610a04939291906132a0565b60405180910390fd5b50505050565b600e60009054906101000a900460ff1681565b6000610a3183610c82565b8210610a765782826040517fa57d13dc000000000000000000000000000000000000000000000000000000008152600401610a6d9291906132d7565b60405180910390fd5b600660008473ffffffffffffffffffffffffffffffffffffffff1673ffffffffffffffffffffffffffffffffffffffff168152602001908152602001600020600083815260200190815260200160002054905092915050565b61271081565b610add6117d3565b60004790503373ffffffffffffffffffffffffffffffffffffffff166108fc829081150290604051600060405180830381858888f19350505050158015610b28573d6000803e3d6000fd5b5050565b610b47838383604051806020016040528060008152506110ca565b505050565b6000610b56610904565b8210610b9c576000826040517fa57d13dc000000000000000000000000000000000000000000000000000000008152600401610b939291906132d7565b60405180910390fd5b60088281548110610bb057610baf613300565b5b90600052602060002001549050919050565b610bca6117d3565b80600d9081610bd991906134db565b5050565b6000610be8826115d7565b9050919050565b600b8054610bfc9061326f565b80601f0160208091040260200160405190810160405280929190818152602001828054610c289061326f565b8015610c755780601f10610c4a57610100808354040283529160200191610c75565b820191906000526020600020905b815481529060010190602001808311610c5857829003601f168201915b505050505081565b600581565b60008073ffffffffffffffffffffffffffffffffffffffff168273ffffffffffffffffffffffffffffffffffffffff1603610cf55760006040517f89c62b64000000000000000000000000000000000000000000000000000000008152600401610cec9190612c44565b60405180910390fd5b600360008373ffffffffffffffffffffffffffffffffffffffff1673ffffffffffffffffffffffffffffffffffffffff168152602001908152602001600020549050919050565b610d446117d3565b610d4e600061185a565b565b610d586117d3565b80600e60006101000a81548160ff02191690831515021790555050565b610d7d6117d3565b6000610d87610904565b905060005b82811015610dbc57610da9338284610da491906135dc565b611920565b8080610db490613610565b915050610d8c565b505050565b610dc96117d3565b60005b83839050811015610e695781600f6000868685818110610def57610dee613300565b5b9050602002016020810190610e049190612ec6565b73ffffffffffffffffffffffffffffffffffffffff1673ffffffffffffffffffffffffffffffffffffffff16815260200190815260200160002060006101000a81548160ff021916908360ff1602179055508080610e6190613610565b915050610dcc565b50505050565b6701b4fbd92b5f800081565b6000600a60009054906101000a900473ffffffffffffffffffffffffffffffffffffffff16905090565b606060018054610eb49061326f565b80601f0160208091040260200160405190810160405280929190818152602001828054610ee09061326f565b8015610f2d5780601f10610f0257610100808354040283529160200191610f2d565b820191906000526020600020905b815481529060010190602001808311610f1057829003601f168201915b5050505050905090565b6000610f41610904565b9050600c60009054906101000a900460ff16610f92576040517f08c379a0000000000000000000000000000000000000000000000000000000008152600401610f89906136ca565b60405180910390fd5b6005821115610fd6576040517f08c379a0000000000000000000000000000000000000000000000000000000008152600401610fcd90613736565b60405180910390fd5b6127108282610fe591906135dc565b1115611026576040517f08c379a000000000000000000000000000000000000000000000000000000000815260040161101d906137a2565b60405180910390fd5b34826701b4fbd92b5f800061103b91906137c2565b111561107c576040517f08c379a000000000000000000000000000000000000000000000000000000000815260040161107390613850565b60405180910390fd5b60005b828110156110af5761109c33828461109791906135dc565b611920565b80806110a790613610565b91505061107f565b505050565b6110c66110bf61169c565b838361193e565b5050565b6110d5848484610911565b6110e184848484611aad565b50505050565b6000600f60008373ffffffffffffffffffffffffffffffffffffffff1673ffffffffffffffffffffffffffffffffffffffff16815260200190815260200160002060009054906101000a900460ff169050919050565b6111456117d3565b80600c60006101000a81548160ff02191690831515021790555050565b606061116d826115d7565b506000611178611c64565b9050600081511161119857604051806020016040528060008152506111c3565b806111a284611cf6565b6040516020016111b39291906138ac565b6040516020818303038152906040525b915050919050565b60006111d5610904565b9050600e60009054906101000a900460ff16611226576040517f08c379a000000000000000000000000000000000000000000000000000000000815260040161121d9061391c565b60405180910390fd5b600f60003373ffffffffffffffffffffffffffffffffffffffff1673ffffffffffffffffffffffffffffffffffffffff16815260200190815260200160002060009054906101000a900460ff1660ff168260ff1611156112bb576040517f08c379a00000000000000000000000000000000000000000000000000000000081526004016112b2906139ae565b60405180910390fd5b6127108260ff16826112cd91906135dc565b111561130e576040517f08c379a0000000000000000000000000000000000000000000000000000000008152600401611305906137a2565b60405180910390fd5b348260ff166701b4fbd92b5f800061132691906137c2565b1115611367576040517f08c379a000000000000000000000000000000000000000000000000000000000815260040161135e90613850565b60405180910390fd5b81600f60003373ffffffffffffffffffffffffffffffffffffffff1673ffffffffffffffffffffffffffffffffffffffff16815260200190815260200160002060008282829054906101000a900460ff166113c291906139ce565b92506101000a81548160ff021916908360ff16021790555060005b8260ff16811015611410576113fd3382846113f891906135dc565b611920565b808061140890613610565b9150506113dd565b505050565b6000600560008473ffffffffffffffffffffffffffffffffffffffff1673ffffffffffffffffffffffffffffffffffffffff16815260200190815260200160002060008373ffffffffffffffffffffffffffffffffffffffff1673ffffffffffffffffffffffffffffffffffffffff16815260200190815260200160002060009054906101000a900460ff16905092915050565b600c60009054906101000a900460ff1681565b6114c46117d3565b600073ffffffffffffffffffffffffffffffffffffffff168173ffffffffffffffffffffffffffffffffffffffff16036115365760006040517f1e4fbdf700000000000000000000000000000000000000000000000000000000815260040161152d9190612c44565b60405180910390fd5b61153f8161185a565b50565b61154a6117d3565b80600b908161155991906134db565b5050565b60007f780e9d63000000000000000000000000000000000000000000000000000000007bffffffffffffffffffffffffffffffffffffffffffffffffffffffff1916827bffffffffffffffffffffffffffffffffffffffffffffffffffffffff191614806115d057506115cf82611dc4565b5b9050919050565b6000806115e383611ea6565b9050600073ffffffffffffffffffffffffffffffffffffffff168173ffffffffffffffffffffffffffffffffffffffff160361165657826040517f7e27328900000000000000000000000000000000000000000000000000000000815260040161164d9190612cda565b60405180910390fd5b80915050919050565b60006004600083815260200190815260200160002060009054906101000a900473ffffffffffffffffffffffffffffffffffffffff169050919050565b600033905090565b6116b18383836001611ee3565b505050565b6000806116c48585856120a8565b9050600073ffffffffffffffffffffffffffffffffffffffff168173ffffffffffffffffffffffffffffffffffffffff160361170857611703846122c2565b611747565b8473ffffffffffffffffffffffffffffffffffffffff168173ffffffffffffffffffffffffffffffffffffffff161461174657611745818561230b565b5b5b600073ffffffffffffffffffffffffffffffffffffffff168573ffffffffffffffffffffffffffffffffffffffff1603611789576117848461246c565b6117c8565b8473ffffffffffffffffffffffffffffffffffffffff168173ffffffffffffffffffffffffffffffffffffffff16146117c7576117c6858561253d565b5b5b809150509392505050565b6117db61169c565b73ffffffffffffffffffffffffffffffffffffffff166117f9610e7b565b73ffffffffffffffffffffffffffffffffffffffff16146118585761181c61169c565b6040517f118cdaa700000000000000000000000000000000000000000000000000000000815260040161184f9190612c44565b60405180910390fd5b565b6000600a60009054906101000a900473ffffffffffffffffffffffffffffffffffffffff16905081600a60006101000a81548173ffffffffffffffffffffffffffffffffffffffff021916908373ffffffffffffffffffffffffffffffffffffffff1602179055508173ffffffffffffffffffffffffffffffffffffffff168173ffffffffffffffffffffffffffffffffffffffff167f8be0079c531659141344cd1fd0a4f28419497f9722a3daafe3b4186f6b6457e060405160405180910390a35050565b61193a8282604051806020016040528060008152506125c8565b5050565b600073ffffffffffffffffffffffffffffffffffffffff168273ffffffffffffffffffffffffffffffffffffffff16036119af57816040517f5b08ba180000000000000000000000000000000000000000000000000000000081526004016119a69190612c44565b60405180910390fd5b80600560008573ffffffffffffffffffffffffffffffffffffffff1673ffffffffffffffffffffffffffffffffffffffff16815260200190815260200160002060008473ffffffffffffffffffffffffffffffffffffffff1673ffffffffffffffffffffffffffffffffffffffff16815260200190815260200160002060006101000a81548160ff0219169083151502179055508173ffffffffffffffffffffffffffffffffffffffff168373ffffffffffffffffffffffffffffffffffffffff167f17307eab39ab6107e8899845ad3d59bd9653f200f220920489ca2b5937696c3183604051611aa09190612ad3565b60405180910390a3505050565b60008373ffffffffffffffffffffffffffffffffffffffff163b1115611c5e578273ffffffffffffffffffffffffffffffffffffffff1663150b7a02611af161169c565b8685856040518563ffffffff1660e01b8152600401611b139493929190613a58565b6020604051808303816000875af1925050508015611b4f57506040513d601f19601f82011682018060405250810190611b4c9190613ab9565b60015b611bd3573d8060008114611b7f576040519150601f19603f3d011682016040523d82523d6000602084013e611b84565b606091505b506000815103611bcb57836040517f64a0ae92000000000000000000000000000000000000000000000000000000008152600401611bc29190612c44565b60405180910390fd5b805181602001fd5b63150b7a0260e01b7bffffffffffffffffffffffffffffffffffffffffffffffffffffffff1916817bffffffffffffffffffffffffffffffffffffffffffffffffffffffff191614611c5c57836040517f64a0ae92000000000000000000000000000000000000000000000000000000008152600401611c539190612c44565b60405180910390fd5b505b50505050565b6060600d8054611c739061326f565b80601f0160208091040260200160405190810160405280929190818152602001828054611c9f9061326f565b8015611cec5780601f10611cc157610100808354040283529160200191611cec565b820191906000526020600020905b815481529060010190602001808311611ccf57829003601f168201915b5050505050905090565b606060006001611d05846125e4565b01905060008167ffffffffffffffff811115611d2457611d23612d52565b5b6040519080825280601f01601f191660200182016040528015611d565781602001600182028036833780820191505090505b509050600082602001820190505b600115611db9578080600190039150507f3031323334353637383961626364656600000000000000000000000000000000600a86061a8153600a8581611dad57611dac613ae6565b5b04945060008503611d64575b819350505050919050565b60007f80ac58cd000000000000000000000000000000000000000000000000000000007bffffffffffffffffffffffffffffffffffffffffffffffffffffffff1916827bffffffffffffffffffffffffffffffffffffffffffffffffffffffff19161480611e8f57507f5b5e139f000000000000000000000000000000000000000000000000000000007bffffffffffffffffffffffffffffffffffffffffffffffffffffffff1916827bffffffffffffffffffffffffffffffffffffffffffffffffffffffff1916145b80611e9f5750611e9e82612737565b5b9050919050565b60006002600083815260200190815260200160002060009054906101000a900473ffffffffffffffffffffffffffffffffffffffff169050919050565b8080611f1c5750600073ffffffffffffffffffffffffffffffffffffffff168273ffffffffffffffffffffffffffffffffffffffff1614155b15612050576000611f2c846115d7565b9050600073ffffffffffffffffffffffffffffffffffffffff168373ffffffffffffffffffffffffffffffffffffffff1614158015611f9757508273ffffffffffffffffffffffffffffffffffffffff168173ffffffffffffffffffffffffffffffffffffffff1614155b8015611faa5750611fa88184611415565b155b15611fec57826040517fa9fbf51f000000000000000000000000000000000000000000000000000000008152600401611fe39190612c44565b60405180910390fd5b811561204e57838573ffffffffffffffffffffffffffffffffffffffff168273ffffffffffffffffffffffffffffffffffffffff167f8c5be1e5ebec7d5bd14f71427d1e84f3dd0314c0f7b2291e5b200ac8c7c3b92560405160405180910390a45b505b836004600085815260200190815260200160002060006101000a81548173ffffffffffffffffffffffffffffffffffffffff021916908373ffffffffffffffffffffffffffffffffffffffff16021790555050505050565b6000806120b484611ea6565b9050600073ffffffffffffffffffffffffffffffffffffffff168373ffffffffffffffffffffffffffffffffffffffff16146120f6576120f58184866127a1565b5b600073ffffffffffffffffffffffffffffffffffffffff168173ffffffffffffffffffffffffffffffffffffffff161461218757612138600085600080611ee3565b6001600360008373ffffffffffffffffffffffffffffffffffffffff1673ffffffffffffffffffffffffffffffffffffffff168152602001908152602001600020600082825403925050819055505b600073ffffffffffffffffffffffffffffffffffffffff168573ffffffffffffffffffffffffffffffffffffffff161461220a576001600360008773ffffffffffffffffffffffffffffffffffffffff1673ffffffffffffffffffffffffffffffffffffffff168152602001908152602001600020600082825401925050819055505b846002600086815260200190815260200160002060006101000a81548173ffffffffffffffffffffffffffffffffffffffff021916908373ffffffffffffffffffffffffffffffffffffffff160217905550838573ffffffffffffffffffffffffffffffffffffffff168273ffffffffffffffffffffffffffffffffffffffff167fddf252ad1be2c89b69c2b068fc378daa952ba7f163c4a11628f55a4df523b3ef60405160405180910390a4809150509392505050565b6008805490506009600083815260200190815260200160002081905550600881908060018154018082558091505060019003906000526020600020016000909190919091505550565b600061231683610c82565b90506000600760008481526020019081526020016000205490508181146123fb576000600660008673ffffffffffffffffffffffffffffffffffffffff1673ffffffffffffffffffffffffffffffffffffffff168152602001908152602001600020600084815260200190815260200160002054905080600660008773ffffffffffffffffffffffffffffffffffffffff1673ffffffffffffffffffffffffffffffffffffffff168152602001908152602001600020600084815260200190815260200160002081905550816007600083815260200190815260200160002081905550505b6007600084815260200190815260200160002060009055600660008573ffffffffffffffffffffffffffffffffffffffff1673ffffffffffffffffffffffffffffffffffffffff16815260200190815260200160002060008381526020019081526020016000206000905550505050565b600060016008805490506124809190613b15565b90506000600960008481526020019081526020016000205490506000600883815481106124b0576124af613300565b5b9060005260206000200154905080600883815481106124d2576124d1613300565b5b90600052602060002001819055508160096000838152602001908152602001600020819055506009600085815260200190815260200160002060009055600880548061252157612520613b49565b5b6001900381819060005260206000200160009055905550505050565b6000600161254a84610c82565b6125549190613b15565b905081600660008573ffffffffffffffffffffffffffffffffffffffff1673ffffffffffffffffffffffffffffffffffffffff168152602001908152602001600020600083815260200190815260200160002081905550806007600084815260200190815260200160002081905550505050565b6125d28383612865565b6125df6000848484611aad565b505050565b600080600090507a184f03e93ff9f4daa797ed6e38ed64bf6a1f0100000000000000008310612642577a184f03e93ff9f4daa797ed6e38ed64bf6a1f010000000000000000838161263857612637613ae6565b5b0492506040810190505b6d04ee2d6d415b85acef8100000000831061267f576d04ee2d6d415b85acef8100000000838161267557612674613ae6565b5b0492506020810190505b662386f26fc1000083106126ae57662386f26fc1000083816126a4576126a3613ae6565b5b0492506010810190505b6305f5e10083106126d7576305f5e10083816126cd576126cc613ae6565b5b0492506008810190505b61271083106126fc5761271083816126f2576126f1613ae6565b5b0492506004810190505b6064831061271f576064838161271557612714613ae6565b5b0492506002810190505b600a831061272e576001810190505b80915050919050565b60007f01ffc9a7000000000000000000000000000000000000000000000000000000007bffffffffffffffffffffffffffffffffffffffffffffffffffffffff1916827bffffffffffffffffffffffffffffffffffffffffffffffffffffffff1916149050919050565b6127ac83838361295e565b61286057600073ffffffffffffffffffffffffffffffffffffffff168373ffffffffffffffffffffffffffffffffffffffff160361282157806040517f7e2732890000000000000000000000000000000000000000000000000000000081526004016128189190612cda565b60405180910390fd5b81816040517f177e802f0000000000000000000000000000000000000000000000000000000081526004016128579291906132d7565b60405180910390fd5b505050565b600073ffffffffffffffffffffffffffffffffffffffff168273ffffffffffffffffffffffffffffffffffffffff16036128d75760006040517f64a0ae920000000000000000000000000000000000000000000000000000000081526004016128ce9190612c44565b60405180910390fd5b60006128e5838360006116b6565b9050600073ffffffffffffffffffffffffffffffffffffffff168173ffffffffffffffffffffffffffffffffffffffff16146129595760006040517f73c6ac6e0000000000000000000000000000000000000000000000000000000081526004016129509190612c44565b60405180910390fd5b505050565b60008073ffffffffffffffffffffffffffffffffffffffff168373ffffffffffffffffffffffffffffffffffffffff1614158015612a1657508273ffffffffffffffffffffffffffffffffffffffff168473ffffffffffffffffffffffffffffffffffffffff1614806129d757506129d68484611415565b5b80612a1557508273ffffffffffffffffffffffffffffffffffffffff166129fd8361165f565b73ffffffffffffffffffffffffffffffffffffffff16145b5b90509392505050565b6000604051905090565b600080fd5b600080fd5b60007fffffffff0000000000000000000000000000000000000000000000000000000082169050919050565b612a6881612a33565b8114612a7357600080fd5b50565b600081359050612a8581612a5f565b92915050565b600060208284031215612aa157612aa0612a29565b5b6000612aaf84828501612a76565b91505092915050565b60008115159050919050565b612acd81612ab8565b82525050565b6000602082019050612ae86000830184612ac4565b92915050565b600081519050919050565b600082825260208201905092915050565b60005b83811015612b28578082015181840152602081019050612b0d565b60008484015250505050565b6000601f19601f8301169050919050565b6000612b5082612aee565b612b5a8185612af9565b9350612b6a818560208601612b0a565b612b7381612b34565b840191505092915050565b60006020820190508181036000830152612b988184612b45565b905092915050565b6000819050919050565b612bb381612ba0565b8114612bbe57600080fd5b50565b600081359050612bd081612baa565b92915050565b600060208284031215612bec57612beb612a29565b5b6000612bfa84828501612bc1565b91505092915050565b600073ffffffffffffffffffffffffffffffffffffffff82169050919050565b6000612c2e82612c03565b9050919050565b612c3e81612c23565b82525050565b6000602082019050612c596000830184612c35565b92915050565b612c6881612c23565b8114612c7357600080fd5b50565b600081359050612c8581612c5f565b92915050565b60008060408385031215612ca257612ca1612a29565b5b6000612cb085828601612c76565b9250506020612cc185828601612bc1565b9150509250929050565b612cd481612ba0565b82525050565b6000602082019050612cef6000830184612ccb565b92915050565b600080600060608486031215612d0e57612d0d612a29565b5b6000612d1c86828701612c76565b9350506020612d2d86828701612c76565b9250506040612d3e86828701612bc1565b9150509250925092565b600080fd5b600080fd5b7f4e487b7100000000000000000000000000000000000000000000000000000000600052604160045260246000fd5b612d8a82612b34565b810181811067ffffffffffffffff82111715612da957612da8612d52565b5b80604052505050565b6000612dbc612a1f565b9050612dc88282612d81565b919050565b600067ffffffffffffffff821115612de857612de7612d52565b5b612df182612b34565b9050602081019050919050565b82818337600083830152505050565b6000612e20612e1b84612dcd565b612db2565b905082815260208101848484011115612e3c57612e3b612d4d565b5b612e47848285612dfe565b509392505050565b600082601f830112612e6457612e63612d48565b5b8135612e74848260208601612e0d565b91505092915050565b600060208284031215612e9357612e92612a29565b5b600082013567ffffffffffffffff811115612eb157612eb0612a2e565b5b612ebd84828501612e4f565b91505092915050565b600060208284031215612edc57612edb612a29565b5b6000612eea84828501612c76565b91505092915050565b612efc81612ab8565b8114612f0757600080fd5b50565b600081359050612f1981612ef3565b92915050565b600060208284031215612f3557612f34612a29565b5b6000612f4384828501612f0a565b91505092915050565b600080fd5b600080fd5b60008083601f840112612f6c57612f6b612d48565b5b8235905067ffffffffffffffff811115612f8957612f88612f4c565b5b602083019150836020820283011115612fa557612fa4612f51565b5b9250929050565b600060ff82169050919050565b612fc281612fac565b8114612fcd57600080fd5b50565b600081359050612fdf81612fb9565b92915050565b600080600060408486031215612ffe57612ffd612a29565b5b600084013567ffffffffffffffff81111561301c5761301b612a2e565b5b61302886828701612f56565b9350935050602061303b86828701612fd0565b9150509250925092565b6000806040838503121561305c5761305b612a29565b5b600061306a85828601612c76565b925050602061307b85828601612f0a565b9150509250929050565b600067ffffffffffffffff8211156130a05761309f612d52565b5b6130a982612b34565b9050602081019050919050565b60006130c96130c484613085565b612db2565b9050828152602081018484840111156130e5576130e4612d4d565b5b6130f0848285612dfe565b509392505050565b600082601f83011261310d5761310c612d48565b5b813561311d8482602086016130b6565b91505092915050565b600080600080608085870312156131405761313f612a29565b5b600061314e87828801612c76565b945050602061315f87828801612c76565b935050604061317087828801612bc1565b925050606085013567ffffffffffffffff81111561319157613190612a2e565b5b61319d878288016130f8565b91505092959194509250565b6131b281612fac565b82525050565b60006020820190506131cd60008301846131a9565b92915050565b6000602082840312156131e9576131e8612a29565b5b60006131f784828501612fd0565b91505092915050565b6000806040838503121561321757613216612a29565b5b600061322585828601612c76565b925050602061323685828601612c76565b9150509250929050565b7f4e487b7100000000000000000000000000000000000000000000000000000000600052602260045260246000fd5b6000600282049050600182168061328757607f821691505b60208210810361329a57613299613240565b5b50919050565b60006060820190506132b56000830186612c35565b6132c26020830185612ccb565b6132cf6040830184612c35565b949350505050565b60006040820190506132ec6000830185612c35565b6132f96020830184612ccb565b9392505050565b7f4e487b7100000000000000000000000000000000000000000000000000000000600052603260045260246000fd5b60008190508160005260206000209050919050565b60006020601f8301049050919050565b600082821b905092915050565b6000600883026133917fffffffffffffffffffffffffffffffffffffffffffffffffffffffffffffffff82613354565b61339b8683613354565b95508019841693508086168417925050509392505050565b6000819050919050565b60006133d86133d36133ce84612ba0565b6133b3565b612ba0565b9050919050565b6000819050919050565b6133f2836133bd565b6134066133fe826133df565b848454613361565b825550505050565b600090565b61341b61340e565b6134268184846133e9565b505050565b5b8181101561344a5761343f600082613413565b60018101905061342c565b5050565b601f82111561348f576134608161332f565b61346984613344565b81016020851015613478578190505b61348c61348485613344565b83018261342b565b50505b505050565b600082821c905092915050565b60006134b260001984600802613494565b1980831691505092915050565b60006134cb83836134a1565b9150826002028217905092915050565b6134e482612aee565b67ffffffffffffffff8111156134fd576134fc612d52565b5b613507825461326f565b61351282828561344e565b600060209050601f8311600181146135455760008415613533578287015190505b61353d85826134bf565b8655506135a5565b601f1984166135538661332f565b60005b8281101561357b57848901518255600182019150602085019450602081019050613556565b868310156135985784890151613594601f8916826134a1565b8355505b6001600288020188555050505b505050505050565b7f4e487b7100000000000000000000000000000000000000000000000000000000600052601160045260246000fd5b60006135e782612ba0565b91506135f283612ba0565b925082820190508082111561360a576136096135ad565b5b92915050565b600061361b82612ba0565b91507fffffffffffffffffffffffffffffffffffffffffffffffffffffffffffffffff820361364d5761364c6135ad565b5b600182019050919050565b7f53616c65206d7573742062652061637469766520746f206d696e7420746f6b6560008201527f6e73000000000000000000000000000000000000000000000000000000000000602082015250565b60006136b4602283612af9565b91506136bf82613658565b604082019050919050565b600060208201905081810360008301526136e3816136a7565b9050919050565b7f4578636565646564206d617820746f6b656e2070757263686173650000000000600082015250565b6000613720601b83612af9565b915061372b826136ea565b602082019050919050565b6000602082019050818103600083015261374f81613713565b9050919050565b7f507572636861736520776f756c6420657863656564206d617820746f6b656e73600082015250565b600061378c602083612af9565b915061379782613756565b602082019050919050565b600060208201905081810360008301526137bb8161377f565b9050919050565b60006137cd82612ba0565b91506137d883612ba0565b92508282026137e681612ba0565b915082820484148315176137fd576137fc6135ad565b5b5092915050565b7f45746865722076616c75652073656e74206973206e6f7420636f727265637400600082015250565b600061383a601f83612af9565b915061384582613804565b602082019050919050565b600060208201905081810360008301526138698161382d565b9050919050565b600081905092915050565b600061388682612aee565b6138908185613870565b93506138a0818560208601612b0a565b80840191505092915050565b60006138b8828561387b565b91506138c4828461387b565b91508190509392505050565b7f416c6c6f77206c697374206973206e6f74206163746976650000000000000000600082015250565b6000613906601883612af9565b9150613911826138d0565b602082019050919050565b60006020820190508181036000830152613935816138f9565b9050919050565b7f4578636565646564206d617820617661696c61626c6520746f2070757263686160008201527f7365000000000000000000000000000000000000000000000000000000000000602082015250565b6000613998602283612af9565b91506139a38261393c565b604082019050919050565b600060208201905081810360008301526139c78161398b565b9050919050565b60006139d982612fac565b91506139e483612fac565b9250828203905060ff8111156139fd576139fc6135ad565b5b92915050565b600081519050919050565b600082825260208201905092915050565b6000613a2a82613a03565b613a348185613a0e565b9350613a44818560208601612b0a565b613a4d81612b34565b840191505092915050565b6000608082019050613a6d6000830187612c35565b613a7a6020830186612c35565b613a876040830185612ccb565b8181036060830152613a998184613a1f565b905095945050505050565b600081519050613ab381612a5f565b92915050565b600060208284031215613acf57613ace612a29565b5b6000613add84828501613aa4565b91505092915050565b7f4e487b7100000000000000000000000000000000000000000000000000000000600052601260045260246000fd5b6000613b2082612ba0565b9150613b2b83612ba0565b9250828203905081811115613b4357613b426135ad565b5b92915050565b7f4e487b7100000000000000000000000000000000000000000000000000000000600052603160045260246000fdfea2646970667358221220c3378f9051129f7431a1477053c0456d9e6f080d6d5c9ff8c1b5bce7b702013364736f6c63430008140033",
  "linkReferences": {},
  "deployedLinkReferences": {}
}